{
  "contractName": "BscEscrow",
  "abi": [
    {
      "inputs": [
        {
          "internalType": "contract IERC20",
          "name": "_token",
          "type": "address"
        }
      ],
      "stateMutability": "nonpayable",
      "type": "constructor"
    },
    {
      "anonymous": false,
      "inputs": [
        {
          "indexed": false,
          "internalType": "string",
          "name": "tradeId",
          "type": "string"
        }
      ],
      "name": "Cancelled",
      "type": "event"
    },
    {
      "anonymous": false,
      "inputs": [
        {
          "indexed": false,
          "internalType": "string",
          "name": "tradeId",
          "type": "string"
        }
      ],
      "name": "Deposited",
      "type": "event"
    },
    {
      "anonymous": false,
      "inputs": [
        {
          "indexed": false,
          "internalType": "string",
          "name": "tradeId",
          "type": "string"
        }
      ],
      "name": "Withdrawed",
      "type": "event"
    },
    {
      "inputs": [],
      "name": "agent",
      "outputs": [
        {
          "internalType": "address",
          "name": "",
          "type": "address"
        }
      ],
      "stateMutability": "view",
      "type": "function",
      "constant": true
    },
    {
      "inputs": [],
      "name": "feeInPercent",
      "outputs": [
        {
          "internalType": "uint256",
          "name": "",
          "type": "uint256"
        }
      ],
      "stateMutability": "view",
      "type": "function",
      "constant": true
    },
    {
      "inputs": [],
      "name": "tradeCount",
      "outputs": [
        {
          "internalType": "uint256",
          "name": "",
          "type": "uint256"
        }
      ],
      "stateMutability": "view",
      "type": "function",
      "constant": true
    },
    {
      "inputs": [
        {
          "internalType": "string",
          "name": "",
          "type": "string"
        }
      ],
      "name": "trades",
      "outputs": [
        {
          "internalType": "address",
          "name": "payee",
          "type": "address"
        },
        {
          "internalType": "address",
          "name": "payeer",
          "type": "address"
        },
        {
          "internalType": "uint256",
          "name": "amount",
          "type": "uint256"
        },
        {
          "internalType": "bool",
          "name": "complete",
          "type": "bool"
        },
        {
          "internalType": "enum BscEscrow.Coin",
          "name": "coin",
          "type": "uint8"
        }
      ],
      "stateMutability": "view",
      "type": "function",
      "constant": true
    },
    {
      "inputs": [
        {
          "internalType": "uint256",
          "name": "fee",
          "type": "uint256"
        }
      ],
      "name": "updateFee",
      "outputs": [],
      "stateMutability": "nonpayable",
      "type": "function"
    },
    {
      "inputs": [
        {
          "internalType": "address",
          "name": "payee",
          "type": "address"
        },
        {
          "internalType": "string",
          "name": "tradeId",
          "type": "string"
        }
      ],
      "name": "deposit",
      "outputs": [],
      "stateMutability": "payable",
      "type": "function",
      "payable": true
    },
    {
      "inputs": [
        {
          "internalType": "address",
          "name": "payee",
          "type": "address"
        },
        {
          "internalType": "uint256",
          "name": "amount",
          "type": "uint256"
        },
        {
          "internalType": "string",
          "name": "tradeId",
          "type": "string"
        }
      ],
      "name": "depositBusd",
      "outputs": [],
      "stateMutability": "nonpayable",
      "type": "function"
    },
    {
      "inputs": [
        {
          "internalType": "string",
          "name": "tradeId",
          "type": "string"
        }
      ],
      "name": "withdraw",
      "outputs": [],
      "stateMutability": "nonpayable",
      "type": "function"
    },
    {
      "inputs": [
        {
          "internalType": "string",
          "name": "tradeId",
          "type": "string"
        }
      ],
      "name": "withdrawFromAgent",
      "outputs": [],
      "stateMutability": "nonpayable",
      "type": "function"
    },
    {
      "inputs": [
        {
          "internalType": "string",
          "name": "tradeId",
          "type": "string"
        }
      ],
      "name": "cancel",
      "outputs": [],
      "stateMutability": "nonpayable",
      "type": "function"
    },
    {
      "inputs": [
        {
          "internalType": "address",
          "name": "_agent",
          "type": "address"
        }
      ],
      "name": "changeAgent",
      "outputs": [],
      "stateMutability": "nonpayable",
      "type": "function"
    }
  ],
  "bytecode": "0x608060405260006001556002805534801561001957600080fd5b5060405161278f38038061278f8339818101604052602081101561003c57600080fd5b8101908080519060200190929190505050336000806101000a81548173ffffffffffffffffffffffffffffffffffffffff021916908373ffffffffffffffffffffffffffffffffffffffff16021790555080600360006101000a81548173ffffffffffffffffffffffffffffffffffffffff021916908373ffffffffffffffffffffffffffffffffffffffff160217905550506126b1806100de6000396000f3fe60806040526004361061009c5760003560e01c80636d24dbd0116100645780636d24dbd01461047b5780639012c4a8146104a657806391904287146104e1578063b7482509146105d3578063bd55022a146106ae578063f5ff5c76146106d95761009c565b80630b4f3f3d146100a157806331fb67c214610169578063412c212b1461023157806347a04100146102f957806357f032e71461042a575b600080fd5b3480156100ad57600080fd5b50610167600480360360208110156100c457600080fd5b81019080803590602001906401000000008111156100e157600080fd5b8201836020820111156100f357600080fd5b8035906020019184600183028401116401000000008311171561011557600080fd5b91908080601f016020809104026020016040519081016040528093929190818152602001838380828437600081840152601f19601f82011690508083019250505050505050919291929050505061071a565b005b34801561017557600080fd5b5061022f6004803603602081101561018c57600080fd5b81019080803590602001906401000000008111156101a957600080fd5b8201836020820111156101bb57600080fd5b803590602001918460018302840111640100000000831117156101dd57600080fd5b91908080601f016020809104026020016040519081016040528093929190818152602001838380828437600081840152601f19601f820116905080830192505050505050509192919290505050610bf3565b005b34801561023d57600080fd5b506102f76004803603602081101561025457600080fd5b810190808035906020019064010000000081111561027157600080fd5b82018360208201111561028357600080fd5b803590602001918460018302840111640100000000831117156102a557600080fd5b91908080601f016020809104026020016040519081016040528093929190818152602001838380828437600081840152601f19601f820116905080830192505050505050509192919290505050611368565b005b34801561030557600080fd5b506103bf6004803603602081101561031c57600080fd5b810190808035906020019064010000000081111561033957600080fd5b82018360208201111561034b57600080fd5b8035906020019184600183028401116401000000008311171561036d57600080fd5b91908080601f016020809104026020016040519081016040528093929190818152602001838380828437600081840152601f19601f82011690508083019250505050505050919291929050505061180b565b604051808673ffffffffffffffffffffffffffffffffffffffff1681526020018573ffffffffffffffffffffffffffffffffffffffff168152602001848152602001831515815260200182600181111561041557fe5b81526020019550505050505060405180910390f35b34801561043657600080fd5b506104796004803603602081101561044d57600080fd5b81019080803573ffffffffffffffffffffffffffffffffffffffff1690602001909291905050506118b1565b005b34801561048757600080fd5b5061049061194c565b6040518082815260200191505060405180910390f35b3480156104b257600080fd5b506104df600480360360208110156104c957600080fd5b8101908080359060200190929190505050611952565b005b3480156104ed57600080fd5b506105d16004803603606081101561050457600080fd5b81019080803573ffffffffffffffffffffffffffffffffffffffff169060200190929190803590602001909291908035906020019064010000000081111561054b57600080fd5b82018360208201111561055d57600080fd5b8035906020019184600183028401116401000000008311171561057f57600080fd5b91908080601f016020809104026020016040519081016040528093929190818152602001838380828437600081840152601f19601f8201169050808301925050505050505091929192905050506119b4565b005b6106ac600480360360408110156105e957600080fd5b81019080803573ffffffffffffffffffffffffffffffffffffffff1690602001909291908035906020019064010000000081111561062657600080fd5b82018360208201111561063857600080fd5b8035906020019184600183028401116401000000008311171561065a57600080fd5b91908080601f016020809104026020016040519081016040528093929190818152602001838380828437600081840152601f19601f820116905080830192505050505050509192919290505050611f74565b005b3480156106ba57600080fd5b506106c361242f565b6040518082815260200191505060405180910390f35b3480156106e557600080fd5b506106ee612435565b604051808273ffffffffffffffffffffffffffffffffffffffff16815260200191505060405180910390f35b6004816040518082805190602001908083835b60208310610750578051825260208201915060208101905060208303925061072d565b6001836020036101000a038019825116818451168082178552505050505050905001915050908152602001604051809103902060030160009054906101000a900460ff1615610807576040517f08c379a00000000000000000000000000000000000000000000000000000000081526004018080602001828103825260178152602001807f547261646520616c726561647920636f6d706c6574656400000000000000000081525060200191505060405180910390fd5b3373ffffffffffffffffffffffffffffffffffffffff166004826040518082805190602001908083835b602083106108545780518252602082019150602081019050602083039250610831565b6001836020036101000a038019825116818451168082178552505050505050905001915050908152602001604051809103902060000160009054906101000a900473ffffffffffffffffffffffffffffffffffffffff1673ffffffffffffffffffffffffffffffffffffffff16148061091857503373ffffffffffffffffffffffffffffffffffffffff1660008054906101000a900473ffffffffffffffffffffffffffffffffffffffff1673ffffffffffffffffffffffffffffffffffffffff16145b61098a576040517f08c379a000000000000000000000000000000000000000000000000000000000815260040180806020018281038252601a8152602001807f596f7520617265206e6f74206275796572206f72206167656e7400000000000081525060200191505060405180910390fd5b60006004826040518082805190602001908083835b602083106109c2578051825260208201915060208101905060208303925061099f565b6001836020036101000a038019825116818451168082178552505050505050905001915050908152602001604051809103902060010160009054906101000a900473ffffffffffffffffffffffffffffffffffffffff1690508073ffffffffffffffffffffffffffffffffffffffff166108fc6004846040518082805190602001908083835b60208310610a6b5780518252602082019150602081019050602083039250610a48565b6001836020036101000a0380198251168184511680821785525050505050509050019150509081526020016040518091039020600201549081150290604051600060405180830381858888f19350505050158015610acd573d6000803e3d6000fd5b5060016004836040518082805190602001908083835b60208310610b065780518252602082019150602081019050602083039250610ae3565b6001836020036101000a038019825116818451168082178552505050505050905001915050908152602001604051809103902060030160006101000a81548160ff0219169083151502179055507f2ac842f90dab3279148f7e55ac91d911f75c1c300a202a5250e05400b15fa156826040518080602001828103825283818151815260200191508051906020019080838360005b83811015610bb5578082015181840152602081019050610b9a565b50505050905090810190601f168015610be25780820380516001836020036101000a031916815260200191505b509250505060405180910390a15050565b6004816040518082805190602001908083835b60208310610c295780518252602082019150602081019050602083039250610c06565b6001836020036101000a038019825116818451168082178552505050505050905001915050908152602001604051809103902060030160009054906101000a900460ff1615610c7757600080fd5b3373ffffffffffffffffffffffffffffffffffffffff166004826040518082805190602001908083835b60208310610cc45780518252602082019150602081019050602083039250610ca1565b6001836020036101000a038019825116818451168082178552505050505050905001915050908152602001604051809103902060010160009054906101000a900473ffffffffffffffffffffffffffffffffffffffff1673ffffffffffffffffffffffffffffffffffffffff1614610d3b57600080fd5b60006004826040518082805190602001908083835b60208310610d735780518252602082019150602081019050602083039250610d50565b6001836020036101000a038019825116818451168082178552505050505050905001915050908152602001604051809103902060000160009054906101000a900473ffffffffffffffffffffffffffffffffffffffff16905060008060009054906101000a900473ffffffffffffffffffffffffffffffffffffffff1690506000610e696004856040518082805190602001908083835b60208310610e2d5780518252602082019150602081019050602083039250610e0a565b6001836020036101000a038019825116818451168082178552505050505050905001915050908152602001604051809103902060020154612459565b90506000816004866040518082805190602001908083835b60208310610ea45780518252602082019150602081019050602083039250610e81565b6001836020036101000a03801982511681845116808217855250505050505090500191505090815260200160405180910390206002015403905060006001811115610eeb57fe5b6004866040518082805190602001908083835b60208310610f215780518252602082019150602081019050602083039250610efe565b6001836020036101000a038019825116818451168082178552505050505050905001915050908152602001604051809103902060030160019054906101000a900460ff166001811115610f7057fe5b1415611009578373ffffffffffffffffffffffffffffffffffffffff166108fc829081150290604051600060405180830381858888f19350505050158015610fbc573d6000803e3d6000fd5b508273ffffffffffffffffffffffffffffffffffffffff166108fc839081150290604051600060405180830381858888f19350505050158015611003573d6000803e3d6000fd5b50611240565b60018081111561101557fe5b6004866040518082805190602001908083835b6020831061104b5780518252602082019150602081019050602083039250611028565b6001836020036101000a038019825116818451168082178552505050505050905001915050908152602001604051809103902060030160019054906101000a900460ff16600181111561109a57fe5b141561123f57600360009054906101000a900473ffffffffffffffffffffffffffffffffffffffff1673ffffffffffffffffffffffffffffffffffffffff1663a9059cbb85836040518363ffffffff1660e01b8152600401808373ffffffffffffffffffffffffffffffffffffffff16815260200182815260200192505050602060405180830381600087803b15801561113357600080fd5b505af1158015611147573d6000803e3d6000fd5b505050506040513d602081101561115d57600080fd5b810190808051906020019092919050505050600360009054906101000a900473ffffffffffffffffffffffffffffffffffffffff1673ffffffffffffffffffffffffffffffffffffffff1663a9059cbb84846040518363ffffffff1660e01b8152600401808373ffffffffffffffffffffffffffffffffffffffff16815260200182815260200192505050602060405180830381600087803b15801561120257600080fd5b505af1158015611216573d6000803e3d6000fd5b505050506040513d602081101561122c57600080fd5b8101908080519060200190929190505050505b5b60016004866040518082805190602001908083835b602083106112785780518252602082019150602081019050602083039250611255565b6001836020036101000a038019825116818451168082178552505050505050905001915050908152602001604051809103902060030160006101000a81548160ff0219169083151502179055507f424fb917e9a6ecc34372d1ff5b608e1ed6acf16b442dce0ee9b51fb2d5bd75e1856040518080602001828103825283818151815260200191508051906020019080838360005b8381101561132757808201518184015260208101905061130c565b50505050905090810190601f1680156113545780820380516001836020036101000a031916815260200191505b509250505060405180910390a15050505050565b60008054906101000a900473ffffffffffffffffffffffffffffffffffffffff1673ffffffffffffffffffffffffffffffffffffffff163373ffffffffffffffffffffffffffffffffffffffff16146113c057600080fd5b6004816040518082805190602001908083835b602083106113f657805182526020820191506020810190506020830392506113d3565b6001836020036101000a038019825116818451168082178552505050505050905001915050908152602001604051809103902060030160009054906101000a900460ff161561144457600080fd5b60006004826040518082805190602001908083835b6020831061147c5780518252602082019150602081019050602083039250611459565b6001836020036101000a038019825116818451168082178552505050505050905001915050908152602001604051809103902060000160009054906101000a900473ffffffffffffffffffffffffffffffffffffffff16905060008060009054906101000a900473ffffffffffffffffffffffffffffffffffffffff16905060006115726004856040518082805190602001908083835b602083106115365780518252602082019150602081019050602083039250611513565b6001836020036101000a038019825116818451168082178552505050505050905001915050908152602001604051809103902060020154612459565b6004856040518082805190602001908083835b602083106115a85780518252602082019150602081019050602083039250611585565b6001836020036101000a0380198251168184511680821785525050505050509050019150509081526020016040518091039020600201540390508273ffffffffffffffffffffffffffffffffffffffff166108fc829081150290604051600060405180830381858888f19350505050158015611628573d6000803e3d6000fd5b508173ffffffffffffffffffffffffffffffffffffffff166108fc6116b86004876040518082805190602001908083835b6020831061167c5780518252602082019150602081019050602083039250611659565b6001836020036101000a038019825116818451168082178552505050505050905001915050908152602001604051809103902060020154612459565b9081150290604051600060405180830381858888f193505050501580156116e3573d6000803e3d6000fd5b5060016004856040518082805190602001908083835b6020831061171c57805182526020820191506020810190506020830392506116f9565b6001836020036101000a038019825116818451168082178552505050505050905001915050908152602001604051809103902060030160006101000a81548160ff0219169083151502179055507f424fb917e9a6ecc34372d1ff5b608e1ed6acf16b442dce0ee9b51fb2d5bd75e1846040518080602001828103825283818151815260200191508051906020019080838360005b838110156117cb5780820151818401526020810190506117b0565b50505050905090810190601f1680156117f85780820380516001836020036101000a031916815260200191505b509250505060405180910390a150505050565b6004818051602081018201805184825260208301602085012081835280955050505050506000915090508060000160009054906101000a900473ffffffffffffffffffffffffffffffffffffffff16908060010160009054906101000a900473ffffffffffffffffffffffffffffffffffffffff16908060020154908060030160009054906101000a900460ff16908060030160019054906101000a900460ff16905085565b60008054906101000a900473ffffffffffffffffffffffffffffffffffffffff1673ffffffffffffffffffffffffffffffffffffffff163373ffffffffffffffffffffffffffffffffffffffff161461190957600080fd5b806000806101000a81548173ffffffffffffffffffffffffffffffffffffffff021916908373ffffffffffffffffffffffffffffffffffffffff16021790555050565b60025481565b60008054906101000a900473ffffffffffffffffffffffffffffffffffffffff1673ffffffffffffffffffffffffffffffffffffffff163373ffffffffffffffffffffffffffffffffffffffff16146119aa57600080fd5b8060028190555050565b600160008154809291906001019190505550826004826040518082805190602001908083835b602083106119fd57805182526020820191506020810190506020830392506119da565b6001836020036101000a038019825116818451168082178552505050505050905001915050908152602001604051809103902060000160006101000a81548173ffffffffffffffffffffffffffffffffffffffff021916908373ffffffffffffffffffffffffffffffffffffffff160217905550336004826040518082805190602001908083835b60208310611aa85780518252602082019150602081019050602083039250611a85565b6001836020036101000a038019825116818451168082178552505050505050905001915050908152602001604051809103902060010160006101000a81548173ffffffffffffffffffffffffffffffffffffffff021916908373ffffffffffffffffffffffffffffffffffffffff160217905550816004826040518082805190602001908083835b60208310611b535780518252602082019150602081019050602083039250611b30565b6001836020036101000a03801982511681845116808217855250505050505090500191505090815260200160405180910390206002018190555060006004826040518082805190602001908083835b60208310611bc55780518252602082019150602081019050602083039250611ba2565b6001836020036101000a038019825116818451168082178552505050505050905001915050908152602001604051809103902060030160006101000a81548160ff02191690831515021790555060016004826040518082805190602001908083835b60208310611c4a5780518252602082019150602081019050602083039250611c27565b6001836020036101000a038019825116818451168082178552505050505050905001915050908152602001604051809103902060030160016101000a81548160ff02191690836001811115611c9b57fe5b021790555060003390506000600360009054906101000a900473ffffffffffffffffffffffffffffffffffffffff1673ffffffffffffffffffffffffffffffffffffffff1663dd62ed3e83306040518363ffffffff1660e01b8152600401808373ffffffffffffffffffffffffffffffffffffffff1681526020018273ffffffffffffffffffffffffffffffffffffffff1681526020019250505060206040518083038186803b158015611d4e57600080fd5b505afa158015611d62573d6000803e3d6000fd5b505050506040513d6020811015611d7857600080fd5b8101908080519060200190929190505050905083811015611de4576040517f08c379a000000000000000000000000000000000000000000000000000000000815260040180806020018281038252602f81526020018061264d602f913960400191505060405180910390fd5b600360009054906101000a900473ffffffffffffffffffffffffffffffffffffffff1673ffffffffffffffffffffffffffffffffffffffff166323b872dd8330876040518463ffffffff1660e01b8152600401808473ffffffffffffffffffffffffffffffffffffffff1681526020018373ffffffffffffffffffffffffffffffffffffffff1681526020018281526020019350505050602060405180830381600087803b158015611e9557600080fd5b505af1158015611ea9573d6000803e3d6000fd5b505050506040513d6020811015611ebf57600080fd5b8101908080519060200190929190505050507f8f975f3a9ebe7caf7fb87cf28ea1f466c6125f6ef6092e306eec7de0de3e51c9836040518080602001828103825283818151815260200191508051906020019080838360005b83811015611f33578082015181840152602081019050611f18565b50505050905090810190601f168015611f605780820380516001836020036101000a031916815260200191505b509250505060405180910390a15050505050565b600073ffffffffffffffffffffffffffffffffffffffff166004826040518082805190602001908083835b60208310611fc25780518252602082019150602081019050602083039250611f9f565b6001836020036101000a038019825116818451168082178552505050505050905001915050908152602001604051809103902060000160009054906101000a900473ffffffffffffffffffffffffffffffffffffffff1673ffffffffffffffffffffffffffffffffffffffff1614156120a3576040517f08c379a00000000000000000000000000000000000000000000000000000000081526004018080602001828103825260148152602001807f747261646520616c72656164792065786973747300000000000000000000000081525060200191505060405180910390fd5b600160008154809291906001019190505550816004826040518082805190602001908083835b602083106120ec57805182526020820191506020810190506020830392506120c9565b6001836020036101000a038019825116818451168082178552505050505050905001915050908152602001604051809103902060000160006101000a81548173ffffffffffffffffffffffffffffffffffffffff021916908373ffffffffffffffffffffffffffffffffffffffff160217905550336004826040518082805190602001908083835b602083106121975780518252602082019150602081019050602083039250612174565b6001836020036101000a038019825116818451168082178552505050505050905001915050908152602001604051809103902060010160006101000a81548173ffffffffffffffffffffffffffffffffffffffff021916908373ffffffffffffffffffffffffffffffffffffffff160217905550346004826040518082805190602001908083835b60208310612242578051825260208201915060208101905060208303925061221f565b6001836020036101000a03801982511681845116808217855250505050505090500191505090815260200160405180910390206002018190555060006004826040518082805190602001908083835b602083106122b45780518252602082019150602081019050602083039250612291565b6001836020036101000a038019825116818451168082178552505050505050905001915050908152602001604051809103902060030160006101000a81548160ff02191690831515021790555060006004826040518082805190602001908083835b602083106123395780518252602082019150602081019050602083039250612316565b6001836020036101000a038019825116818451168082178552505050505050905001915050908152602001604051809103902060030160016101000a81548160ff0219169083600181111561238a57fe5b02179055507f8f975f3a9ebe7caf7fb87cf28ea1f466c6125f6ef6092e306eec7de0de3e51c9816040518080602001828103825283818151815260200191508051906020019080838360005b838110156123f15780820151818401526020810190506123d6565b50505050905090810190601f16801561241e5780820380516001836020036101000a031916815260200191505b509250505060405180910390a15050565b60015481565b60008054906101000a900473ffffffffffffffffffffffffffffffffffffffff1681565b6000806124716002548461249590919063ffffffff16565b9050600061248960648361251b90919063ffffffff16565b90508092505050919050565b6000808314156124a85760009050612515565b60008284029050828482816124b957fe5b0414612510576040517f08c379a000000000000000000000000000000000000000000000000000000000815260040180806020018281038252602181526020018061262c6021913960400191505060405180910390fd5b809150505b92915050565b600061255d83836040518060400160405280601a81526020017f536166654d6174683a206469766973696f6e206279207a65726f000000000000815250612565565b905092915050565b60008083118290612611576040517f08c379a00000000000000000000000000000000000000000000000000000000081526004018080602001828103825283818151815260200191508051906020019080838360005b838110156125d65780820151818401526020810190506125bb565b50505050905090810190601f1680156126035780820380516001836020036101000a031916815260200191505b509250505060405180910390fd5b50600083858161261d57fe5b04905080915050939250505056fe536166654d6174683a206d756c7469706c69636174696f6e206f766572666c6f77436f6e7472616374206973206e6f7420617070726f7665642c20706c6561736520617070726f766564206669727374a2646970667358221220225ed29f11d002c9265572ac31f458cc4f946f85926c348bc69a2aa963af4b3664736f6c634300060c0033",
  "source": "pragma solidity ^0.6.0;\n\nimport \"../../node_modules/@openzeppelin/contracts/token/ERC20/IERC20.sol\";\n\n// import \"https://github.com/OpenZeppelin/openzeppelin-contracts/blob/release-v3.4/contracts/token/ERC20/IERC20.sol\";\n\nimport \"../../node_modules/@openzeppelin/contracts/math/SafeMath.sol\";\n\n\ncontract BscEscrow {\n    \n    using SafeMath for uint256;\n    \n    address public agent;\n    \n    uint256 public tradeCount = 0;\n    \n    uint public feeInPercent = 2;\n    \n    \n    IERC20 private busd;\n    \n    enum Coin {BNB, BUSD}\n    \n    struct trade {\n        address payee;\n        address payeer;\n        uint256 amount;\n        bool complete;\n        Coin coin;\n    }\n    \n    mapping( string => trade)  public trades;\n    \n    \n    constructor(IERC20 _token) public {\n        agent = msg.sender;\n        busd = IERC20(_token);\n    }\n    \n    modifier onlyAgent(){\n        require(msg.sender == agent);\n        _;\n    }\n\n    event Deposited(string tradeId);\n    event Withdrawed(string tradeId);\n    event Cancelled(string tradeId);\n    \n    function updateFee(uint fee) public onlyAgent {\n        feeInPercent = fee;\n    }\n    \n   \n    \n    function escrowFee(uint256 amount) private view returns(uint256) {\n        uint256 x = amount.mul(feeInPercent) ;\n        uint256 adminFee = x.div(100);\n        return adminFee;\n    }\n    \n    \n    \n    function deposit(address payee, string memory tradeId) public payable {\n        require(trades[tradeId].payee != address(0),'trade already exists');\n        tradeCount++;\n        trades[tradeId].payee = payee;\n        trades[tradeId].payeer = msg.sender;\n        trades[tradeId].amount = msg.value;\n        trades[tradeId].complete = false;\n        trades[tradeId].coin = Coin.BNB;\n        emit Deposited(tradeId);\n    }\n    \n    function depositBusd(address payee,uint256 amount,string memory tradeId) public {\n        tradeCount++;\n        trades[tradeId].payee = payee;\n        trades[tradeId].payeer = msg.sender;\n        trades[tradeId].amount = amount;\n        trades[tradeId].complete = false;\n        trades[tradeId].coin = Coin.BUSD;\n        address owner = msg.sender;\n        uint allowed = busd.allowance(owner, address(this));\n        require(allowed >= amount, 'Contract is not approved, please approved first');\n        busd.transferFrom(owner,address(this),amount);\n        emit Deposited(tradeId);\n    }\n    \n    \n    \n    \n    function withdraw(string memory tradeId) public {\n        require(!trades[tradeId].complete);\n        require(trades[tradeId].payeer == msg.sender);\n        address payable  payee = address(uint160(trades[tradeId].payee));\n        address  payable admin = address(uint160(agent));\n        uint fee = escrowFee(trades[tradeId].amount);\n        uint amount = trades[tradeId].amount - fee;\n        if(trades[tradeId].coin == Coin.BNB){\n            payee.transfer(amount);\n            admin.transfer(fee);\n        }else if(trades[tradeId].coin == Coin.BUSD){\n            busd.transfer(payee,amount);\n            busd.transfer(admin,fee);\n        }\n        \n        trades[tradeId].complete = true;\n        \n        emit Withdrawed(tradeId);\n        \n    }\n    \n    \n    \n    function withdrawFromAgent(string memory tradeId) public onlyAgent{\n        require(!trades[tradeId].complete);\n        address payable payee = address(uint160(trades[tradeId].payee));\n        address payable  admin = address(uint160(agent));\n        uint amount = trades[tradeId].amount - escrowFee(trades[tradeId].amount);\n        payee.transfer(amount);\n        admin.transfer(escrowFee(trades[tradeId].amount));\n        trades[tradeId].complete = true;\n        emit Withdrawed(tradeId);\n    }\n    \n    function cancel(string memory tradeId) public {\n        require(!trades[tradeId].complete,'Trade already completed');\n        require(trades[tradeId].payee == msg.sender || agent == msg.sender,'You are not buyer or agent');\n        address payable payeer = address(uint160(trades[tradeId].payeer));\n        payeer.transfer(trades[tradeId].amount);\n        trades[tradeId].complete = true;\n        emit Cancelled(tradeId);\n    }\n    \n    \n     function changeAgent(address _agent) public onlyAgent {\n         agent = _agent;\n     }\n     \n     \n    \n    \n}",
  "sourcePath": "/Users/nawab/Project/escrow-dapp/src/contracts/BscEscrow.sol",
  "compiler": {
    "name": "solc",
    "version": "0.6.12+commit.27d51765.Emscripten.clang"
  },
  "schemaVersion": "3.0.20",
  "updatedAt": "2021-06-15T10:16:23.852Z",
  "networkType": "ethereum",
  "devdoc": {
    "kind": "dev",
    "methods": {},
    "version": 1
  },
  "userdoc": {
    "kind": "user",
    "methods": {},
    "version": 1
  }
}