{
  "contractName": "BscEscrow",
  "abi": [
    {
      "inputs": [
        {
          "internalType": "contract IERC20",
          "name": "_token",
          "type": "address"
        }
      ],
      "stateMutability": "nonpayable",
      "type": "constructor"
    },
    {
      "inputs": [],
      "name": "agent",
      "outputs": [
        {
          "internalType": "address",
          "name": "",
          "type": "address"
        }
      ],
      "stateMutability": "view",
      "type": "function",
      "constant": true
    },
    {
      "inputs": [],
      "name": "feeInPercent",
      "outputs": [
        {
          "internalType": "uint256",
          "name": "",
          "type": "uint256"
        }
      ],
      "stateMutability": "view",
      "type": "function",
      "constant": true
    },
    {
      "inputs": [],
      "name": "tradeCount",
      "outputs": [
        {
          "internalType": "uint256",
          "name": "",
          "type": "uint256"
        }
      ],
      "stateMutability": "view",
      "type": "function",
      "constant": true
    },
    {
      "inputs": [
        {
          "internalType": "uint256",
          "name": "",
          "type": "uint256"
        }
      ],
      "name": "trades",
      "outputs": [
        {
          "internalType": "address",
          "name": "payee",
          "type": "address"
        },
        {
          "internalType": "address",
          "name": "payeer",
          "type": "address"
        },
        {
          "internalType": "uint256",
          "name": "amount",
          "type": "uint256"
        },
        {
          "internalType": "bool",
          "name": "complete",
          "type": "bool"
        },
        {
          "internalType": "enum BscEscrow.Coin",
          "name": "coin",
          "type": "uint8"
        }
      ],
      "stateMutability": "view",
      "type": "function",
      "constant": true
    },
    {
      "inputs": [
        {
          "internalType": "uint256",
          "name": "fee",
          "type": "uint256"
        }
      ],
      "name": "updateFee",
      "outputs": [],
      "stateMutability": "nonpayable",
      "type": "function"
    },
    {
      "inputs": [
        {
          "internalType": "address",
          "name": "payee",
          "type": "address"
        }
      ],
      "name": "deposit",
      "outputs": [],
      "stateMutability": "payable",
      "type": "function",
      "payable": true
    },
    {
      "inputs": [
        {
          "internalType": "address",
          "name": "payee",
          "type": "address"
        },
        {
          "internalType": "uint256",
          "name": "amount",
          "type": "uint256"
        }
      ],
      "name": "depositBusd",
      "outputs": [],
      "stateMutability": "nonpayable",
      "type": "function"
    },
    {
      "inputs": [
        {
          "internalType": "uint256",
          "name": "id",
          "type": "uint256"
        }
      ],
      "name": "withdraw",
      "outputs": [],
      "stateMutability": "nonpayable",
      "type": "function"
    },
    {
      "inputs": [
        {
          "internalType": "uint256",
          "name": "id",
          "type": "uint256"
        }
      ],
      "name": "withdrawFromAgent",
      "outputs": [],
      "stateMutability": "nonpayable",
      "type": "function"
    },
    {
      "inputs": [
        {
          "internalType": "uint256",
          "name": "id",
          "type": "uint256"
        }
      ],
      "name": "cancel",
      "outputs": [],
      "stateMutability": "nonpayable",
      "type": "function"
    },
    {
      "inputs": [
        {
          "internalType": "address",
          "name": "_agent",
          "type": "address"
        }
      ],
      "name": "changeAgent",
      "outputs": [],
      "stateMutability": "nonpayable",
      "type": "function"
    }
  ],
  "bytecode": "0x608060405260006001556002805534801561001957600080fd5b506040516115623803806115628339818101604052602081101561003c57600080fd5b8101908080519060200190929190505050336000806101000a81548173ffffffffffffffffffffffffffffffffffffffff021916908373ffffffffffffffffffffffffffffffffffffffff16021790555080600360006101000a81548173ffffffffffffffffffffffffffffffffffffffff021916908373ffffffffffffffffffffffffffffffffffffffff16021790555050611484806100de6000396000f3fe60806040526004361061009c5760003560e01c80636d24dbd0116100645780636d24dbd0146102675780639012c4a814610292578063bd55022a146102cd578063cdc6dca3146102f8578063f340fa0114610333578063f5ff5c76146103775761009c565b8063104e0633146100a15780631e6c598e146100fc5780632e1a7d4d146101a057806340e58ee5146101db57806357f032e714610216575b600080fd5b3480156100ad57600080fd5b506100fa600480360360408110156100c457600080fd5b81019080803573ffffffffffffffffffffffffffffffffffffffff169060200190929190803590602001909291905050506103b8565b005b34801561010857600080fd5b506101356004803603602081101561011f57600080fd5b8101908080359060200190929190505050610737565b604051808673ffffffffffffffffffffffffffffffffffffffff1681526020018573ffffffffffffffffffffffffffffffffffffffff168152602001848152602001831515815260200182600181111561018b57fe5b81526020019550505050505060405180910390f35b3480156101ac57600080fd5b506101d9600480360360208110156101c357600080fd5b81019080803590602001909291905050506107c7565b005b3480156101e757600080fd5b50610214600480360360208110156101fe57600080fd5b8101908080359060200190929190505050610bf4565b005b34801561022257600080fd5b506102656004803603602081101561023957600080fd5b81019080803573ffffffffffffffffffffffffffffffffffffffff169060200190929190505050610db1565b005b34801561027357600080fd5b5061027c610e4c565b6040518082815260200191505060405180910390f35b34801561029e57600080fd5b506102cb600480360360208110156102b557600080fd5b8101908080359060200190929190505050610e52565b005b3480156102d957600080fd5b506102e2610eb4565b6040518082815260200191505060405180910390f35b34801561030457600080fd5b506103316004803603602081101561031b57600080fd5b8101908080359060200190929190505050610eba565b005b6103756004803603602081101561034957600080fd5b81019080803573ffffffffffffffffffffffffffffffffffffffff1690602001909291905050506110bd565b005b34801561038357600080fd5b5061038c611208565b604051808273ffffffffffffffffffffffffffffffffffffffff16815260200191505060405180910390f35b6001600081548092919060010191905055508160046000600154815260200190815260200160002060000160006101000a81548173ffffffffffffffffffffffffffffffffffffffff021916908373ffffffffffffffffffffffffffffffffffffffff1602179055503360046000600154815260200190815260200160002060010160006101000a81548173ffffffffffffffffffffffffffffffffffffffff021916908373ffffffffffffffffffffffffffffffffffffffff1602179055508060046000600154815260200190815260200160002060020181905550600060046000600154815260200190815260200160002060030160006101000a81548160ff021916908315150217905550600160046000600154815260200190815260200160002060030160016101000a81548160ff021916908360018111156104fb57fe5b021790555060003390506000600360009054906101000a900473ffffffffffffffffffffffffffffffffffffffff1673ffffffffffffffffffffffffffffffffffffffff1663dd62ed3e83306040518363ffffffff1660e01b8152600401808373ffffffffffffffffffffffffffffffffffffffff1681526020018273ffffffffffffffffffffffffffffffffffffffff1681526020019250505060206040518083038186803b1580156105ae57600080fd5b505afa1580156105c2573d6000803e3d6000fd5b505050506040513d60208110156105d857600080fd5b8101908080519060200190929190505050905082811015610644576040517f08c379a000000000000000000000000000000000000000000000000000000000815260040180806020018281038252602f815260200180611420602f913960400191505060405180910390fd5b600360009054906101000a900473ffffffffffffffffffffffffffffffffffffffff1673ffffffffffffffffffffffffffffffffffffffff166323b872dd8330866040518463ffffffff1660e01b8152600401808473ffffffffffffffffffffffffffffffffffffffff1681526020018373ffffffffffffffffffffffffffffffffffffffff1681526020018281526020019350505050602060405180830381600087803b1580156106f557600080fd5b505af1158015610709573d6000803e3d6000fd5b505050506040513d602081101561071f57600080fd5b81019080805190602001909291905050505050505050565b60046020528060005260406000206000915090508060000160009054906101000a900473ffffffffffffffffffffffffffffffffffffffff16908060010160009054906101000a900473ffffffffffffffffffffffffffffffffffffffff16908060020154908060030160009054906101000a900460ff16908060030160019054906101000a900460ff16905085565b6004600082815260200190815260200160002060030160009054906101000a900460ff16156107f557600080fd5b3373ffffffffffffffffffffffffffffffffffffffff166004600083815260200190815260200160002060010160009054906101000a900473ffffffffffffffffffffffffffffffffffffffff1673ffffffffffffffffffffffffffffffffffffffff161461086357600080fd5b60006004600083815260200190815260200160002060000160009054906101000a900473ffffffffffffffffffffffffffffffffffffffff16905060008060009054906101000a900473ffffffffffffffffffffffffffffffffffffffff16905060006108e5600460008681526020019081526020016000206002015461122c565b905060008160046000878152602001908152602001600020600201540390506000600181111561091157fe5b60046000600154815260200190815260200160002060030160019054906101000a900460ff16600181111561094257fe5b14156109db578373ffffffffffffffffffffffffffffffffffffffff166108fc829081150290604051600060405180830381858888f1935050505015801561098e573d6000803e3d6000fd5b508273ffffffffffffffffffffffffffffffffffffffff166108fc839081150290604051600060405180830381858888f193505050501580156109d5573d6000803e3d6000fd5b50610bbe565b6001808111156109e757fe5b60046000600154815260200190815260200160002060030160019054906101000a900460ff166001811115610a1857fe5b1415610bbd57600360009054906101000a900473ffffffffffffffffffffffffffffffffffffffff1673ffffffffffffffffffffffffffffffffffffffff1663a9059cbb85836040518363ffffffff1660e01b8152600401808373ffffffffffffffffffffffffffffffffffffffff16815260200182815260200192505050602060405180830381600087803b158015610ab157600080fd5b505af1158015610ac5573d6000803e3d6000fd5b505050506040513d6020811015610adb57600080fd5b810190808051906020019092919050505050600360009054906101000a900473ffffffffffffffffffffffffffffffffffffffff1673ffffffffffffffffffffffffffffffffffffffff1663a9059cbb84846040518363ffffffff1660e01b8152600401808373ffffffffffffffffffffffffffffffffffffffff16815260200182815260200192505050602060405180830381600087803b158015610b8057600080fd5b505af1158015610b94573d6000803e3d6000fd5b505050506040513d6020811015610baa57600080fd5b8101908080519060200190929190505050505b5b60016004600087815260200190815260200160002060030160006101000a81548160ff0219169083151502179055505050505050565b6004600082815260200190815260200160002060030160009054906101000a900460ff1615610c2257600080fd5b3373ffffffffffffffffffffffffffffffffffffffff166004600083815260200190815260200160002060000160009054906101000a900473ffffffffffffffffffffffffffffffffffffffff1673ffffffffffffffffffffffffffffffffffffffff161480610cdd57503373ffffffffffffffffffffffffffffffffffffffff1660008054906101000a900473ffffffffffffffffffffffffffffffffffffffff1673ffffffffffffffffffffffffffffffffffffffff16145b610ce657600080fd5b60006004600083815260200190815260200160002060010160009054906101000a900473ffffffffffffffffffffffffffffffffffffffff1690508073ffffffffffffffffffffffffffffffffffffffff166108fc60046000858152602001908152602001600020600201549081150290604051600060405180830381858888f19350505050158015610d7d573d6000803e3d6000fd5b5060016004600084815260200190815260200160002060030160006101000a81548160ff0219169083151502179055505050565b60008054906101000a900473ffffffffffffffffffffffffffffffffffffffff1673ffffffffffffffffffffffffffffffffffffffff163373ffffffffffffffffffffffffffffffffffffffff1614610e0957600080fd5b806000806101000a81548173ffffffffffffffffffffffffffffffffffffffff021916908373ffffffffffffffffffffffffffffffffffffffff16021790555050565b60025481565b60008054906101000a900473ffffffffffffffffffffffffffffffffffffffff1673ffffffffffffffffffffffffffffffffffffffff163373ffffffffffffffffffffffffffffffffffffffff1614610eaa57600080fd5b8060028190555050565b60015481565b60008054906101000a900473ffffffffffffffffffffffffffffffffffffffff1673ffffffffffffffffffffffffffffffffffffffff163373ffffffffffffffffffffffffffffffffffffffff1614610f1257600080fd5b6004600082815260200190815260200160002060030160009054906101000a900460ff1615610f4057600080fd5b60006004600083815260200190815260200160002060000160009054906101000a900473ffffffffffffffffffffffffffffffffffffffff16905060008060009054906101000a900473ffffffffffffffffffffffffffffffffffffffff1690506000610fc2600460008681526020019081526020016000206002015461122c565b60046000868152602001908152602001600020600201540390508273ffffffffffffffffffffffffffffffffffffffff166108fc829081150290604051600060405180830381858888f19350505050158015611022573d6000803e3d6000fd5b508173ffffffffffffffffffffffffffffffffffffffff166108fc61105c600460008881526020019081526020016000206002015461122c565b9081150290604051600060405180830381858888f19350505050158015611087573d6000803e3d6000fd5b5060016004600086815260200190815260200160002060030160006101000a81548160ff02191690831515021790555050505050565b6001600081548092919060010191905055508060046000600154815260200190815260200160002060000160006101000a81548173ffffffffffffffffffffffffffffffffffffffff021916908373ffffffffffffffffffffffffffffffffffffffff1602179055503360046000600154815260200190815260200160002060010160006101000a81548173ffffffffffffffffffffffffffffffffffffffff021916908373ffffffffffffffffffffffffffffffffffffffff1602179055503460046000600154815260200190815260200160002060020181905550600060046000600154815260200190815260200160002060030160006101000a81548160ff021916908315150217905550600060046000600154815260200190815260200160002060030160016101000a81548160ff0219169083600181111561120057fe5b021790555050565b60008054906101000a900473ffffffffffffffffffffffffffffffffffffffff1681565b6000806112446002548461126890919063ffffffff16565b9050600061125c6064836112ee90919063ffffffff16565b90508092505050919050565b60008083141561127b57600090506112e8565b600082840290508284828161128c57fe5b04146112e3576040517f08c379a00000000000000000000000000000000000000000000000000000000081526004018080602001828103825260218152602001806113ff6021913960400191505060405180910390fd5b809150505b92915050565b600061133083836040518060400160405280601a81526020017f536166654d6174683a206469766973696f6e206279207a65726f000000000000815250611338565b905092915050565b600080831182906113e4576040517f08c379a00000000000000000000000000000000000000000000000000000000081526004018080602001828103825283818151815260200191508051906020019080838360005b838110156113a957808201518184015260208101905061138e565b50505050905090810190601f1680156113d65780820380516001836020036101000a031916815260200191505b509250505060405180910390fd5b5060008385816113f057fe5b04905080915050939250505056fe536166654d6174683a206d756c7469706c69636174696f6e206f766572666c6f77436f6e7472616374206973206e6f7420617070726f7665642c20706c6561736520617070726f766564206669727374a26469706673582212202db0310ae8277f3e9e5974bf3884f7fc73927a5fcdfbf225cf2712550388854764736f6c634300060c0033",
  "source": "pragma solidity ^0.6.0;\n\nimport \"../../node_modules/@openzeppelin/contracts/token/ERC20/IERC20.sol\";\n\n// import \"https://github.com/OpenZeppelin/openzeppelin-contracts/blob/release-v3.4/contracts/token/ERC20/IERC20.sol\";\n\nimport \"../../node_modules/@openzeppelin/contracts/math/SafeMath.sol\";\n\n\ncontract BscEscrow {\n    \n    using SafeMath for uint256;\n    \n    address public agent;\n    \n    uint256 public tradeCount = 0;\n    \n    uint public feeInPercent = 2;\n    \n    \n    IERC20 private busd;\n    \n    enum Coin {ETH, BUSD}\n    \n    struct trade {\n        address payee;\n        address payeer;\n        uint256 amount;\n        bool complete;\n        Coin coin;\n    }\n    \n    mapping( uint256 => trade)  public trades;\n    \n    \n    constructor(IERC20 _token) public {\n        agent = msg.sender;\n        busd = IERC20(_token);\n    }\n    \n    modifier onlyAgent(){\n        require(msg.sender == agent);\n        _;\n    }\n    \n    function updateFee(uint fee) public onlyAgent {\n        feeInPercent = fee;\n    }\n    \n   \n    \n    function escrowFee(uint256 amount) private view returns(uint256) {\n        uint256 x = amount.mul(feeInPercent) ;\n        uint256 adminFee = x.div(100);\n        return adminFee;\n    }\n    \n    \n    \n    function deposit(address payee) public payable {\n        tradeCount++;\n        trades[tradeCount].payee = payee;\n        trades[tradeCount].payeer = msg.sender;\n        trades[tradeCount].amount = msg.value;\n        trades[tradeCount].complete = false;\n        trades[tradeCount].coin = Coin.ETH;\n    }\n    \n    function depositBusd(address payee,uint256 amount) public {\n        tradeCount++;\n        trades[tradeCount].payee = payee;\n        trades[tradeCount].payeer = msg.sender;\n        trades[tradeCount].amount = amount;\n        trades[tradeCount].complete = false;\n        trades[tradeCount].coin = Coin.BUSD;\n        address owner = msg.sender;\n        uint allowed = busd.allowance(owner, address(this));\n        require(allowed >= amount, 'Contract is not approved, please approved first');\n        busd.transferFrom(owner,address(this),amount);\n        \n    }\n    \n    \n    \n    \n    function withdraw(uint256 id) public {\n        \n        require(!trades[id].complete);\n        require(trades[id].payeer == msg.sender);\n        address payable  payee = address(uint160(trades[id].payee));\n        address  payable admin = address(uint160(agent));\n        uint fee = escrowFee(trades[id].amount);\n        uint amount = trades[id].amount - fee;\n        if(trades[tradeCount].coin == Coin.ETH){\n            payee.transfer(amount);\n            admin.transfer(fee);\n        }else if(trades[tradeCount].coin == Coin.BUSD){\n            busd.transfer(payee,amount);\n            busd.transfer(admin,fee);\n        }\n        \n        trades[id].complete = true;\n        \n    }\n    \n    \n    \n    function withdrawFromAgent(uint256 id) public onlyAgent{\n        require(!trades[id].complete);\n        address payable payee = address(uint160(trades[id].payee));\n        address payable  admin = address(uint160(agent));\n        uint amount = trades[id].amount - escrowFee(trades[id].amount);\n        payee.transfer(amount);\n        admin.transfer(escrowFee(trades[id].amount));\n        trades[id].complete = true;\n    }\n    \n    function cancel(uint256 id) public {\n        require(!trades[id].complete);\n        require(trades[id].payee == msg.sender || agent == msg.sender);\n        address payable payeer = address(uint160(trades[id].payeer));\n        payeer.transfer(trades[id].amount);\n        trades[id].complete = true;\n    }\n    \n    \n     function changeAgent(address _agent) public onlyAgent {\n         agent = _agent;\n     }\n     \n     \n    \n    \n}",
  "sourcePath": "/Users/nawab/Project/escrow-dapp/src/contracts/BscEscrow.sol",
  "compiler": {
    "name": "solc",
    "version": "0.6.12+commit.27d51765.Emscripten.clang"
  },
  "schemaVersion": "3.0.20",
  "updatedAt": "2021-05-29T16:32:35.093Z",
  "networkType": "ethereum",
  "devdoc": {
    "kind": "dev",
    "methods": {},
    "version": 1
  },
  "userdoc": {
    "kind": "user",
    "methods": {},
    "version": 1
  }
}