{
  "contractName": "EthEscrow",
  "abi": [
    {
      "inputs": [
        {
          "internalType": "contract IERC20",
          "name": "_token",
          "type": "address"
        }
      ],
      "stateMutability": "nonpayable",
      "type": "constructor"
    },
    {
      "inputs": [
        {
          "internalType": "uint256",
          "name": "",
          "type": "uint256"
        }
      ],
      "name": "trades",
      "outputs": [
        {
          "internalType": "address",
          "name": "payee",
          "type": "address"
        },
        {
          "internalType": "address",
          "name": "payeer",
          "type": "address"
        },
        {
          "internalType": "uint256",
          "name": "amount",
          "type": "uint256"
        },
        {
          "internalType": "bool",
          "name": "complete",
          "type": "bool"
        },
        {
          "internalType": "enum EthEscrow.Coin",
          "name": "coin",
          "type": "uint8"
        }
      ],
      "stateMutability": "view",
      "type": "function"
    },
    {
      "inputs": [
        {
          "internalType": "uint256",
          "name": "fee",
          "type": "uint256"
        }
      ],
      "name": "updateFee",
      "outputs": [],
      "stateMutability": "nonpayable",
      "type": "function"
    },
    {
      "inputs": [
        {
          "internalType": "address",
          "name": "payee",
          "type": "address"
        }
      ],
      "name": "deposit",
      "outputs": [],
      "stateMutability": "payable",
      "type": "function"
    },
    {
      "inputs": [
        {
          "internalType": "address",
          "name": "payee",
          "type": "address"
        },
        {
          "internalType": "uint256",
          "name": "amount",
          "type": "uint256"
        }
      ],
      "name": "depositUsdt",
      "outputs": [],
      "stateMutability": "nonpayable",
      "type": "function"
    },
    {
      "inputs": [
        {
          "internalType": "uint256",
          "name": "id",
          "type": "uint256"
        }
      ],
      "name": "withdraw",
      "outputs": [],
      "stateMutability": "nonpayable",
      "type": "function"
    },
    {
      "inputs": [
        {
          "internalType": "uint256",
          "name": "id",
          "type": "uint256"
        }
      ],
      "name": "withdrawFromAgent",
      "outputs": [],
      "stateMutability": "nonpayable",
      "type": "function"
    },
    {
      "inputs": [
        {
          "internalType": "uint256",
          "name": "id",
          "type": "uint256"
        }
      ],
      "name": "cancel",
      "outputs": [],
      "stateMutability": "nonpayable",
      "type": "function"
    }
  ],
  "bytecode": "0x608060405260006001556002805534801561001957600080fd5b5060405161110c38038061110c8339818101604052602081101561003c57600080fd5b8101908080519060200190929190505050336000806101000a81548173ffffffffffffffffffffffffffffffffffffffff021916908373ffffffffffffffffffffffffffffffffffffffff16021790555080600360006101000a81548173ffffffffffffffffffffffffffffffffffffffff021916908373ffffffffffffffffffffffffffffffffffffffff1602179055505061102e806100de6000396000f3fe6080604052600436106100705760003560e01c806384ed4f981161004e57806384ed4f981461018f5780639012c4a8146101ea578063cdc6dca314610225578063f340fa011461026057610070565b80631e6c598e146100755780632e1a7d4d1461011957806340e58ee514610154575b600080fd5b34801561008157600080fd5b506100ae6004803603602081101561009857600080fd5b81019080803590602001909291905050506102a4565b604051808673ffffffffffffffffffffffffffffffffffffffff1681526020018573ffffffffffffffffffffffffffffffffffffffff168152602001848152602001831515815260200182600181111561010457fe5b81526020019550505050505060405180910390f35b34801561012557600080fd5b506101526004803603602081101561013c57600080fd5b8101908080359060200190929190505050610334565b005b34801561016057600080fd5b5061018d6004803603602081101561017757600080fd5b81019080803590602001909291905050506106c0565b005b34801561019b57600080fd5b506101e8600480360360408110156101b257600080fd5b81019080803573ffffffffffffffffffffffffffffffffffffffff1690602001909291908035906020019092919050505061087d565b005b3480156101f657600080fd5b506102236004803603602081101561020d57600080fd5b8101908080359060200190929190505050610bfc565b005b34801561023157600080fd5b5061025e6004803603602081101561024857600080fd5b8101908080359060200190929190505050610c5e565b005b6102a26004803603602081101561027657600080fd5b81019080803573ffffffffffffffffffffffffffffffffffffffff169060200190929190505050610e61565b005b60046020528060005260406000206000915090508060000160009054906101000a900473ffffffffffffffffffffffffffffffffffffffff16908060010160009054906101000a900473ffffffffffffffffffffffffffffffffffffffff16908060020154908060030160009054906101000a900460ff16908060030160019054906101000a900460ff16905085565b6004600082815260200190815260200160002060030160009054906101000a900460ff161561036257600080fd5b3373ffffffffffffffffffffffffffffffffffffffff166004600083815260200190815260200160002060010160009054906101000a900473ffffffffffffffffffffffffffffffffffffffff1673ffffffffffffffffffffffffffffffffffffffff16146103d057600080fd5b60006004600083815260200190815260200160002060000160009054906101000a900473ffffffffffffffffffffffffffffffffffffffff16905060008060009054906101000a900473ffffffffffffffffffffffffffffffffffffffff16905060006104526004600086815260200190815260200160002060020154610fac565b60046000868152602001908152602001600020600201540390506000600181111561047957fe5b60046000600154815260200190815260200160002060030160019054906101000a900460ff1660018111156104aa57fe5b1415610561578273ffffffffffffffffffffffffffffffffffffffff166108fc829081150290604051600060405180830381858888f193505050501580156104f6573d6000803e3d6000fd5b508173ffffffffffffffffffffffffffffffffffffffff166108fc6105306004600088815260200190815260200160002060020154610fac565b9081150290604051600060405180830381858888f1935050505015801561055b573d6000803e3d6000fd5b5061068b565b60018081111561056d57fe5b60046000600154815260200190815260200160002060030160019054906101000a900460ff16600181111561059e57fe5b141561068a57600360009054906101000a900473ffffffffffffffffffffffffffffffffffffffff1673ffffffffffffffffffffffffffffffffffffffff1663a9059cbb8460046000888152602001908152602001600020600201546040518363ffffffff1660e01b8152600401808373ffffffffffffffffffffffffffffffffffffffff16815260200182815260200192505050602060405180830381600087803b15801561064d57600080fd5b505af1158015610661573d6000803e3d6000fd5b505050506040513d602081101561067757600080fd5b8101908080519060200190929190505050505b5b60016004600086815260200190815260200160002060030160006101000a81548160ff02191690831515021790555050505050565b6004600082815260200190815260200160002060030160009054906101000a900460ff16156106ee57600080fd5b3373ffffffffffffffffffffffffffffffffffffffff166004600083815260200190815260200160002060000160009054906101000a900473ffffffffffffffffffffffffffffffffffffffff1673ffffffffffffffffffffffffffffffffffffffff1614806107a957503373ffffffffffffffffffffffffffffffffffffffff1660008054906101000a900473ffffffffffffffffffffffffffffffffffffffff1673ffffffffffffffffffffffffffffffffffffffff16145b6107b257600080fd5b60006004600083815260200190815260200160002060010160009054906101000a900473ffffffffffffffffffffffffffffffffffffffff1690508073ffffffffffffffffffffffffffffffffffffffff166108fc60046000858152602001908152602001600020600201549081150290604051600060405180830381858888f19350505050158015610849573d6000803e3d6000fd5b5060016004600084815260200190815260200160002060030160006101000a81548160ff0219169083151502179055505050565b6001600081548092919060010191905055508160046000600154815260200190815260200160002060000160006101000a81548173ffffffffffffffffffffffffffffffffffffffff021916908373ffffffffffffffffffffffffffffffffffffffff1602179055503360046000600154815260200190815260200160002060010160006101000a81548173ffffffffffffffffffffffffffffffffffffffff021916908373ffffffffffffffffffffffffffffffffffffffff1602179055508060046000600154815260200190815260200160002060020181905550600060046000600154815260200190815260200160002060030160006101000a81548160ff021916908315150217905550600160046000600154815260200190815260200160002060030160016101000a81548160ff021916908360018111156109c057fe5b021790555060003390506000600360009054906101000a900473ffffffffffffffffffffffffffffffffffffffff1673ffffffffffffffffffffffffffffffffffffffff1663dd62ed3e83306040518363ffffffff1660e01b8152600401808373ffffffffffffffffffffffffffffffffffffffff1681526020018273ffffffffffffffffffffffffffffffffffffffff1681526020019250505060206040518083038186803b158015610a7357600080fd5b505afa158015610a87573d6000803e3d6000fd5b505050506040513d6020811015610a9d57600080fd5b8101908080519060200190929190505050905082811015610b09576040517f08c379a000000000000000000000000000000000000000000000000000000000815260040180806020018281038252602f815260200180610fca602f913960400191505060405180910390fd5b600360009054906101000a900473ffffffffffffffffffffffffffffffffffffffff1673ffffffffffffffffffffffffffffffffffffffff166323b872dd8330866040518463ffffffff1660e01b8152600401808473ffffffffffffffffffffffffffffffffffffffff1681526020018373ffffffffffffffffffffffffffffffffffffffff1681526020018281526020019350505050602060405180830381600087803b158015610bba57600080fd5b505af1158015610bce573d6000803e3d6000fd5b505050506040513d6020811015610be457600080fd5b81019080805190602001909291905050505050505050565b60008054906101000a900473ffffffffffffffffffffffffffffffffffffffff1673ffffffffffffffffffffffffffffffffffffffff163373ffffffffffffffffffffffffffffffffffffffff1614610c5457600080fd5b8060028190555050565b60008054906101000a900473ffffffffffffffffffffffffffffffffffffffff1673ffffffffffffffffffffffffffffffffffffffff163373ffffffffffffffffffffffffffffffffffffffff1614610cb657600080fd5b6004600082815260200190815260200160002060030160009054906101000a900460ff1615610ce457600080fd5b60006004600083815260200190815260200160002060000160009054906101000a900473ffffffffffffffffffffffffffffffffffffffff16905060008060009054906101000a900473ffffffffffffffffffffffffffffffffffffffff1690506000610d666004600086815260200190815260200160002060020154610fac565b60046000868152602001908152602001600020600201540390508273ffffffffffffffffffffffffffffffffffffffff166108fc829081150290604051600060405180830381858888f19350505050158015610dc6573d6000803e3d6000fd5b508173ffffffffffffffffffffffffffffffffffffffff166108fc610e006004600088815260200190815260200160002060020154610fac565b9081150290604051600060405180830381858888f19350505050158015610e2b573d6000803e3d6000fd5b5060016004600086815260200190815260200160002060030160006101000a81548160ff02191690831515021790555050505050565b6001600081548092919060010191905055508060046000600154815260200190815260200160002060000160006101000a81548173ffffffffffffffffffffffffffffffffffffffff021916908373ffffffffffffffffffffffffffffffffffffffff1602179055503360046000600154815260200190815260200160002060010160006101000a81548173ffffffffffffffffffffffffffffffffffffffff021916908373ffffffffffffffffffffffffffffffffffffffff1602179055503460046000600154815260200190815260200160002060020181905550600060046000600154815260200190815260200160002060030160006101000a81548160ff021916908315150217905550600060046000600154815260200190815260200160002060030160016101000a81548160ff02191690836001811115610fa457fe5b021790555050565b6000806064600254840281610fbd57fe5b0490508091505091905056fe436f6e7472616374206973206e6f7420617070726f7665642c20706c6561736520617070726f766564206669727374a26469706673582212204b61f7e653085badb4d90ac364ec62a587d433d538fcbb6dee2be3fc2b044be764736f6c634300060c0033",
  "immutableReferences": {},
  "source": "pragma solidity ^0.6.0;\n\nimport \"../../node_modules/@openzeppelin/contracts/token/ERC20/IERC20.sol\";\n\n\ncontract EthEscrow {\n    \n    address agent;\n    \n    uint256 tradeCount = 0;\n    \n    uint feeInPercent = 2;\n    \n    \n    IERC20 private usdt;\n    \n    enum Coin {ETH, USDT}\n    \n    struct trade {\n        address payee;\n        address payeer;\n        uint256 amount;\n        bool complete;\n        Coin coin;\n    }\n    \n    mapping( uint256 => trade)  public trades;\n    \n    \n    constructor(IERC20 _token) public {\n        agent = msg.sender;\n        usdt = IERC20(_token);\n    }\n    \n    modifier onlyAgent(){\n        require(msg.sender == agent);\n        _;\n    }\n    \n    function updateFee(uint fee) public onlyAgent {\n        feeInPercent = fee;\n    }\n    \n    function escrowFee(uint amount) private view returns(uint) {\n        uint adminFee = (amount * feeInPercent) / 100 ;\n        return adminFee;\n    }\n    \n    \n    \n    function deposit(address payee) public payable {\n        tradeCount++;\n        trades[tradeCount].payee = payee;\n        trades[tradeCount].payeer = msg.sender;\n        trades[tradeCount].amount = msg.value;\n        trades[tradeCount].complete = false;\n        trades[tradeCount].coin = Coin.ETH;\n    }\n    \n    function depositUsdt(address payee,uint256 amount) public {\n        tradeCount++;\n        trades[tradeCount].payee = payee;\n        trades[tradeCount].payeer = msg.sender;\n        trades[tradeCount].amount = amount;\n        trades[tradeCount].complete = false;\n        trades[tradeCount].coin = Coin.USDT;\n        \n        address owner = msg.sender;\n        \n        uint allowed = usdt.allowance(owner, address(this));\n        \n        require(allowed >= amount, 'Contract is not approved, please approved first');\n        \n        usdt.transferFrom(owner,address(this),amount);\n        \n    }\n    \n    \n    \n    function withdraw(uint256 id) public {\n        \n        require(!trades[id].complete);\n        require(trades[id].payeer == msg.sender);\n        address payable  payee = address(uint160(trades[id].payee));\n        address  payable admin = address(uint160(agent));\n        uint amount = trades[id].amount - escrowFee(trades[id].amount);\n        if(trades[tradeCount].coin == Coin.ETH){\n            payee.transfer(amount);\n            admin.transfer(escrowFee(trades[id].amount));\n        }else if(trades[tradeCount].coin == Coin.USDT){\n            usdt.transfer(payee,trades[id].amount);\n        }\n        \n        trades[id].complete = true;\n        \n    }\n    \n    \n    \n    function withdrawFromAgent(uint256 id) public onlyAgent{\n        require(!trades[id].complete);\n        address payable payee = address(uint160(trades[id].payee));\n        address payable  admin = address(uint160(agent));\n        uint amount = trades[id].amount - escrowFee(trades[id].amount);\n        payee.transfer(amount);\n        admin.transfer(escrowFee(trades[id].amount));\n        trades[id].complete = true;\n    }\n    \n    function cancel(uint256 id) public {\n        require(!trades[id].complete);\n        require(trades[id].payee == msg.sender || agent == msg.sender);\n        address payable payeer = address(uint160(trades[id].payeer));\n        payeer.transfer(trades[id].amount);\n        trades[id].complete = true;\n    }\n    \n    \n    \n    \n}",
  "sourcePath": "/home/nawab/Code/escrow/src/contracts/EthEscrow.sol",
  "compiler": {
    "name": "solc",
    "version": "0.6.12+commit.27d51765.Emscripten.clang"
  },
  "schemaVersion": "3.2.3",
  "updatedAt": "2021-05-22T16:46:53.487Z",
  "devdoc": {
    "kind": "dev",
    "methods": {},
    "version": 1
  },
  "userdoc": {
    "kind": "user",
    "methods": {},
    "version": 1
  }
}